:100000000C9463000C948B000C948B000C94EB020A
:100010000C94EB020C94EB020C948B000C948B0070
:100020000C948B000C948B000C948B000C948B0024
:100030000C948B000C948B000C948B000C948B0014
:100040000C9449020C948B000C94B9020C9493020A
:100050000C948B000C948B000C948B000C948B00F4
:100060000C948B000C948B0000000008000201002F
:100070000003040700000000000000000000000072
:1000800023002600290000000000240027002A0089
:1000900000000000250028002B00040404040404D0
:1000A0000404020202020202030303030303010227
:1000B00004081020408001020408102001020408F6
:1000C0001020AF03C00511241FBECFEFD8E0DEBF64
:1000D000CDBF11E0A0E0B1E0EEEDFBE002C0059085
:1000E0000D92A432B107D9F722E0A4E2B1E001C039
:1000F0001D92AD32B207E1F710E0C2E6D0E004C0D5
:100100002197FE010E94DC05C136D107C9F70E9484
:1001100098040C94E2050C940000AF92BF92CF9229
:10012000DF92EF92FF920F931F93CF93DF936C01B7
:100130007B018B01040F151FEB015E01AE18BF0898
:10014000C017D10759F06991D601ED91FC9101904A
:10015000F081E02DC6010995892B79F7C501DF9162
:10016000CF911F910F91FF90EF90DF90CF90BF90B4
:10017000AF900895FC01538D448D252F30E0842FDE
:1001800090E0821B930B541710F0CF9608950197BF
:100190000895FC01918D828D981761F0A28DAE0FAC
:1001A000BF2FB11D5D968C91928D9F5F9F73928F33
:1001B00090E008958FEF9FEF0895FC01918D828D5F
:1001C000981731F0828DE80FF11D858D90E008952C
:1001D0008FEF9FEF0895FC01918D228D892F90E084
:1001E000805C9F4F821B91098F739927089581E747
:1001F00091E00E94EB0021E0892B09F420E0822F9E
:10020000089580E090E0892B29F00E94F700811189
:100210000C9400000895FC01A48DA80FB92FB11D06
:10022000A35ABF4F2C91848D90E001968F7399272C
:10023000848FA689B7892C93A089B1898C9183700A
:1002400080648C93938D848D981306C00288F38903
:10025000E02D80818F7D80830895EF92FF920F9330
:100260001F93CF93DF93EC0181E0888F9B8D8C8D62
:1002700098131AC0E889F989808185FF15C09FB756
:10028000F894EE89FF896083E889F9898081837019
:10029000806480839FBF81E090E0DF91CF911F91C8
:1002A0000F91FF90EF900895F62E0B8D10E00F5FE9
:1002B0001F4F0F731127E02E8C8D8E110CC00FB6BF
:1002C00007FCFACFE889F989808185FFF5CFCE0157
:1002D0000E940B01F1CFEB8DEC0FFD2FF11DE35AC6
:1002E000FF4FF0829FB7F8940B8FEA89FB898081DA
:1002F0008062CFCFCF93DF93EC01888D8823B9F054
:10030000AA89BB89E889F9898C9185FD03C0808120
:1003100086FD0DC00FB607FCF7CF8C9185FFF2CF9D
:10032000808185FFEDCFCE010E940B01E9CFDF91E7
:10033000CF91089520916601309167012817390700
:1003400071F49091640180916501981741F0E091FA
:100350006401F0E0EC5DFE4F808190E008958FEF46
:100360009FEF08950895EF92FF920F931F93CF93FD
:10037000DF93DC015C96ED90FC905D97E114F10455
:1003800079F481E090E013969C938E93129790E01D
:1003900080E0DF91CF911F910F91FF90EF90089532
:1003A0005196ED91FC91529750968C915097982FC1
:1003B00090950FB75E962C915E97122F127021FDCB
:1003C0006095F8942081112319F1282B2083E701EF
:1003D0002197F1F728E0462F50E0308160FF1AC0E6
:1003E000382B3083E7012197F1F7BA0175956795AE
:1003F000215089F7112381F08081892380830FBFE9
:100400005C968D919C910197F1F781E090E0C1CFCE
:100410002923DCCF3923E5CF9081892BEFCF2091A1
:100420006601309167012817390761F480916501F1
:100430002091640190E0805C9F4F821B91098F7333
:100440009927089590E080E0089520916601309109
:10045000670128173907B9F490916401809165010B
:10046000981789F0E0916401F0E0EC5DFE4F808127
:100470002091640130E02F5F3F4F2F73332720938B
:10048000640190E008958FEF9FEF089590E080E081
:1004900008951F920F920FB60F9211242F933F933E
:1004A0008F939F93AF93BF9380916D0190916E0155
:1004B000A0916F01B091700130916C0123E0230F86
:1004C0002D3758F50196A11DB11D20936C01809325
:1004D0006D0190936E01A0936F01B09370018091B4
:1004E000680190916901A0916A01B0916B01019638
:1004F000A11DB11D8093680190936901A0936A01C9
:10050000B0936B01BF91AF919F918F913F912F91CC
:100510000F900FBE0F901F90189526E8230F02969C
:10052000A11DB11DD2CF1F920F920FB60F921124B1
:100530002F933F934F935F936F937F938F939F93EB
:10054000AF93BF93EF93FF9381E791E00E940B017C
:10055000FF91EF91BF91AF919F918F917F916F919B
:100560005F914F913F912F910F900FBE0F901F9071
:1005700018951F920F920FB60F9211242F938F93FD
:100580009F93EF93FF93E0918101F091820180812D
:10059000E0918701F091880182FD1BC090818091DC
:1005A0008A018F5F8F7320918B01821741F0E09158
:1005B0008A01F0E0EF58FE4F958F80938A01FF91FA
:1005C000EF919F918F912F910F900FBE0F901F90E1
:1005D00018958081F4CF1F920F920FB60F921124BD
:1005E0002F933F934F935F936F937F938F939F933B
:1005F000AF93BF93EF93FF93E0916601F091670192
:10060000309749F0A685B7858585968D91FF14C0F2
:100610009C918923A1F4FF91EF91BF91AF919F919C
:100620008F917F916F915F914F913F912F910F909B
:100630000FBE0F901F9018959C91892361F7A38995
:10064000B4899C918589809589238C938689978923
:100650000197F1F7608D718DA685B785558538E0D6
:1006600020E0CB010197F1F7822F90E095958795D7
:10067000282F4C91452309F02068315091F7868D41
:1006800081FD20958091650190E001968F739927F7
:1006900030916401381799F0A0916501B0E0AC5D2C
:1006A000BE4F2C9380936501828D938D0197F1F756
:1006B000A389B4898C919589892B8C93ACCF868D35
:1006C0008160868FF1CF90E0FC01E859FF4F2491C3
:1006D000FC01E255FF4F3491FC01E656FF4FE491D7
:1006E000EE23C9F0222339F0233001F1A8F42130A0
:1006F00019F1223029F1F0E0EE0FFF1FE057FF4F14
:10070000A591B4918FB7F894EC91611126C0309502
:100710003E233C938FBF08952730A9F02830C9F0BD
:10072000243049F7809180008F7D03C08091800044
:100730008F7780938000DFCF84B58F7784BDDBCF48
:1007400084B58F7DFBCF8091B0008F778093B00010
:10075000D2CF8091B0008F7DF9CF3E2BDACF0F93AF
:100760001F93CF93DF93109274011092730188EE60
:1007700093E0A0E0B0E08093750190937601A093A0
:100780007701B093780124E031E030937201209337
:10079000710125EC30E030937E0120937D0124EC43
:1007A00030E03093800120937F0120EC30E03093E3
:1007B00082012093810121EC30E030938401209369
:1007C000830122EC30E0309386012093850126ECF2
:1007D00030E0309388012093870110928A011092B3
:1007E0008B0110928C0110928D01109211021092C7
:1007F00010028093120290931302A0931402B093FC
:10080000150286E191E090930F0280930E02109200
:1008100025021092240210922702109226021092B2
:1008200029021092280210922B0210922A02609143
:100830002C026E7F6D7F60932C026695617081E063
:10084000682788E00E94630346EB50E0FA01649158
:1008500082EA90E0FC012491222399F030E0220FFB
:10086000331FF901EA57FF4FA591B491F901E05701
:10087000FF4F259134912FB7F8943C91632B6C93E3
:100880002FBFFA01449140931E02FC018491E82F8E
:10089000F0E0EE0FFF1FE057FF4F8591949190938A
:1008A000200280931F0208EB10E0F8012491C4EAB3
:1008B000D0E0FE0184918823C9F090E0880F991F51
:1008C000FC01EA57FF4FA591B491FC01E057FF4F9F
:1008D000459154913FB7F8949C91822F809598232D
:1008E0009C93FA019081892380833FBF80912C02E1
:1008F00081FD04C061E08AE00E9463038AE0809386
:100900001A02F801049100931B02FE01C491EC2F1E
:10091000F0E0EE0FFF1FE458FF4F85919491909304
:100920001D0280931C02DF91CF911F910F910895BA
:10093000789484B5826084BD84B5816084BD85B5BA
:10094000826085BD85B5816085BD80916E008160C6
:1009500080936E001092810080918100826080936C
:10096000810080918100816080938100809180006E
:100970008160809380008091B10084608093B10099
:100980008091B00081608093B00080917A00846093
:1009900080937A0080917A00826080937A008091BF
:1009A0007A00816080937A0080917A0080688093D9
:1009B0007A001092C100E0918101F091820182E001
:1009C0008083E0917D01F0917E011082E0917F01B2
:1009D000F091800180E1808310928901E09185018E
:1009E000F091860186E08083E0918301F09184019B
:1009F000808180618083E0918301F0918401808116
:100A000088608083E0918301F09184018081806817
:100A10008083E0918301F091840180818F7D8083C8
:100A20001092290210922802109227021092260298
:100A300010922502109224028DE991E090932B02EE
:100A400080932A0290911A02963108F047C02DEB4C
:100A500030E030932502209324022BE931E03093DB
:100A60002702209326022CE231E0309329022093C2
:100A700028022091680084E0983048F031E09E30F0
:100A800008F430E081E001C0880F3A95EAF7822B44
:100A9000809368002DE630E0983050F02BE630E08F
:100AA0009E3030F02CE630E0963110F030E020E05F
:100AB0003093220220932102292F30E0983008F051
:100AC00052C081E001C0880F9A95EAF78093230213
:100AD00080912A0290912B020197F1F780912802D0
:100AE00090912902892B49F1E0916601F09167010B
:100AF00082E0EE30F80709F1309739F0A389B48924
:100B00009C918589809589238C9380912C028E7F7E
:100B100080932C0210926501109264018EE092E0A5
:100B20009093670180936601E0912102F091220287
:100B3000808190912302892B808388E199E20FB60E
:100B4000F894A895809360000FBE90936000C0E079
:100B5000D0E0A8952097E9F30E94F7008823C9F315
:100B60000E940000F6CF9E3040F42850310981E009
:100B700001C0880F2A95EAF7A9CF2E503109F7CF87
:100B800086E191E090930F0280930E0280916601BE
:100B9000909167018E50924071F4E0912102F091A2
:100BA0002202908180912302809589238083109274
:100BB0006701109266010895EE0FFF1F0590F491F2
:100BC000E02D099410E0C2E6D0E004C0FE010E94CE
:0E0BD000DC052196C336D107C9F7F894FFCF94
:100BDE00000000002D018D00BA007A01EB00C90063
:100BEE00DD0000000000B3018D004602B2010F02CD
:040BFE0025029A0131
:00000001FF
